{"abi":[{"inputs":[],"name":"play","outputs":[],"stateMutability":"payable","type":"function"},{"inputs":[{"internalType":"address","name":"","type":"address"}],"name":"sent","outputs":[{"internalType":"bool","name":"","type":"bool"}],"stateMutability":"view","type":"function"}],"bytecode":"608060405234801561001057600080fd5b5061027b806100206000396000f3fe6080604052600436106100295760003560e01c80637bf786f81461002e57806393e84cd914610072575b600080fd5b34801561003a57600080fd5b5061005e6100493660046101e7565b60006020819052908152604090205460ff1681565b604051901515815260200160405180910390f35b61007a61007c565b005b336100c05760405162461bcd60e51b815260206004820152600f60248201526e496e76616c6964206164647265737360881b60448201526064015b60405180910390fd5b600154600e60ff909116106101035760405162461bcd60e51b815260206004820152600960248201526823b0b6b29037bb32b960b91b60448201526064016100b7565b3360009081526020819052604090205460ff16156101635760405162461bcd60e51b815260206004820152601860248201527f596f75206861766520706c6179656420616c72656164792e000000000000000060448201526064016100b7565b336000908152602081905260408120805460ff19166001908117909155805460ff169161018f83610217565b82546101009290920a60ff81810219909316918316021790915560015416600e141590506101e55760405133904780156108fc02916000818181858888f193505050501580156101e3573d6000803e3d6000fd5b505b565b6000602082840312156101f957600080fd5b81356001600160a01b038116811461021057600080fd5b9392505050565b600060ff821660ff81141561023c57634e487b7160e01b600052601160045260246000fd5b6001019291505056fea26469706673582212208f6bdc8a26249eadee609abcd3c1655c0ecc0b1fbca6dcb2569f2f096093e7d364736f6c634300080c0033","bytecodeSha1":"b5c5c3bb4b1e2e598e8f2497aaa5d866864dc231","compiler":{"evm_version":"istanbul","optimizer":{"enabled":true,"runs":200},"version":"0.8.12+commit.f00d7308"},"contractName":"Game","language":"Solidity","natspec":{"kind":"dev","methods":{},"version":1},"opcodes":"PUSH1 0x80 PUSH1 0x40 MSTORE PUSH1 0x4 CALLDATASIZE LT PUSH2 0x29 JUMPI PUSH1 0x0 CALLDATALOAD PUSH1 0xE0 SHR DUP1 PUSH4 0x7BF786F8 EQ PUSH2 0x2E JUMPI DUP1 PUSH4 0x93E84CD9 EQ PUSH2 0x72 JUMPI JUMPDEST PUSH1 0x0 DUP1 REVERT JUMPDEST CALLVALUE DUP1 ISZERO PUSH2 0x3A JUMPI PUSH1 0x0 DUP1 REVERT JUMPDEST POP PUSH2 0x5E PUSH2 0x49 CALLDATASIZE PUSH1 0x4 PUSH2 0x1E7 JUMP JUMPDEST PUSH1 0x0 PUSH1 0x20 DUP2 SWAP1 MSTORE SWAP1 DUP2 MSTORE PUSH1 0x40 SWAP1 KECCAK256 SLOAD PUSH1 0xFF AND DUP2 JUMP JUMPDEST PUSH1 0x40 MLOAD SWAP1 ISZERO ISZERO DUP2 MSTORE PUSH1 0x20 ADD PUSH1 0x40 MLOAD DUP1 SWAP2 SUB SWAP1 RETURN JUMPDEST PUSH2 0x7A PUSH2 0x7C JUMP JUMPDEST STOP JUMPDEST CALLER PUSH2 0xC0 JUMPI PUSH1 0x40 MLOAD PUSH3 0x461BCD PUSH1 0xE5 SHL DUP2 MSTORE PUSH1 0x20 PUSH1 0x4 DUP3 ADD MSTORE PUSH1 0xF PUSH1 0x24 DUP3 ADD MSTORE PUSH15 0x496E76616C69642061646472657373 PUSH1 0x88 SHL PUSH1 0x44 DUP3 ADD MSTORE PUSH1 0x64 ADD JUMPDEST PUSH1 0x40 MLOAD DUP1 SWAP2 SUB SWAP1 REVERT JUMPDEST PUSH1 0x1 SLOAD PUSH1 0xE PUSH1 0xFF SWAP1 SWAP2 AND LT PUSH2 0x103 JUMPI PUSH1 0x40 MLOAD PUSH3 0x461BCD PUSH1 0xE5 SHL DUP2 MSTORE PUSH1 0x20 PUSH1 0x4 DUP3 ADD MSTORE PUSH1 0x9 PUSH1 0x24 DUP3 ADD MSTORE PUSH9 0x23B0B6B29037BB32B9 PUSH1 0xB9 SHL PUSH1 0x44 DUP3 ADD MSTORE PUSH1 0x64 ADD PUSH2 0xB7 JUMP JUMPDEST CALLER PUSH1 0x0 SWAP1 DUP2 MSTORE PUSH1 0x20 DUP2 SWAP1 MSTORE PUSH1 0x40 SWAP1 KECCAK256 SLOAD PUSH1 0xFF AND ISZERO PUSH2 0x163 JUMPI PUSH1 0x40 MLOAD PUSH3 0x461BCD PUSH1 0xE5 SHL DUP2 MSTORE PUSH1 0x20 PUSH1 0x4 DUP3 ADD MSTORE PUSH1 0x18 PUSH1 0x24 DUP3 ADD MSTORE PUSH32 0x596F75206861766520706C6179656420616C72656164792E0000000000000000 PUSH1 0x44 DUP3 ADD MSTORE PUSH1 0x64 ADD PUSH2 0xB7 JUMP JUMPDEST CALLER PUSH1 0x0 SWAP1 DUP2 MSTORE PUSH1 0x20 DUP2 SWAP1 MSTORE PUSH1 0x40 DUP2 KECCAK256 DUP1 SLOAD PUSH1 0xFF NOT AND PUSH1 0x1 SWAP1 DUP2 OR SWAP1 SWAP2 SSTORE DUP1 SLOAD PUSH1 0xFF AND SWAP2 PUSH2 0x18F DUP4 PUSH2 0x217 JUMP JUMPDEST DUP3 SLOAD PUSH2 0x100 SWAP3 SWAP1 SWAP3 EXP PUSH1 0xFF DUP2 DUP2 MUL NOT SWAP1 SWAP4 AND SWAP2 DUP4 AND MUL OR SWAP1 SWAP2 SSTORE PUSH1 0x1 SLOAD AND PUSH1 0xE EQ ISZERO SWAP1 POP PUSH2 0x1E5 JUMPI PUSH1 0x40 MLOAD CALLER SWAP1 SELFBALANCE DUP1 ISZERO PUSH2 0x8FC MUL SWAP2 PUSH1 0x0 DUP2 DUP2 DUP2 DUP6 DUP9 DUP9 CALL SWAP4 POP POP POP POP ISZERO DUP1 ISZERO PUSH2 0x1E3 JUMPI RETURNDATASIZE PUSH1 0x0 DUP1 RETURNDATACOPY RETURNDATASIZE PUSH1 0x0 REVERT JUMPDEST POP JUMPDEST JUMP JUMPDEST PUSH1 0x0 PUSH1 0x20 DUP3 DUP5 SUB SLT ISZERO PUSH2 0x1F9 JUMPI PUSH1 0x0 DUP1 REVERT JUMPDEST DUP2 CALLDATALOAD PUSH1 0x1 PUSH1 0x1 PUSH1 0xA0 SHL SUB DUP2 AND DUP2 EQ PUSH2 0x210 JUMPI PUSH1 0x0 DUP1 REVERT JUMPDEST SWAP4 SWAP3 POP POP POP JUMP JUMPDEST PUSH1 0x0 PUSH1 0xFF DUP3 AND PUSH1 0xFF DUP2 EQ ISZERO PUSH2 0x23C JUMPI PUSH4 0x4E487B71 PUSH1 0xE0 SHL PUSH1 0x0 MSTORE PUSH1 0x11 PUSH1 0x4 MSTORE PUSH1 0x24 PUSH1 0x0 REVERT JUMPDEST PUSH1 0x1 ADD SWAP3 SWAP2 POP POP JUMP INVALID LOG2 PUSH5 0x6970667358 0x22 SLT KECCAK256 DUP16 PUSH12 0xDC8A26249EADEE609ABCD3C1 PUSH6 0x5C0ECC0B1FBC 0xA6 0xDC 0xB2 JUMP SWAP16 0x2F MULMOD PUSH1 0x93 0xE7 0xD3 PUSH5 0x736F6C6343 STOP ADDMOD 0xC STOP CALLER ","sha1":"c77270c3548cf3cc455241f298b0f85ced2cfb27","source":"// SPDX-License-Identifier: MIT\npragma solidity >0.6.0;\n\n/*\n * @title: \n * @author: Anthony (fps) https://github.com/fps8k .\n * @dev: \n*/\n\n\ncontract Game\n{\n    // To prevent people from sending multiple eth.\n\n    mapping(address => bool) public sent;\n\n    uint8 count;\n\n\n\n\n    /*\n    * @dev:\n    *\n    * Anyone can play.\n    * 14th person to send eth wins all the money in the contract.\n    *\n    * It's a gamble.\n    */\n    function play() public payable\n    {\n        require(msg.sender != address(0), \"Invalid address\");\n        require(count < 14, \"Game over\");\n        require(!sent[msg.sender], \"You have played already.\");\n\n        // This guy is number 1.\n\n        sent[msg.sender] = true;\n        count ++;\n\n        if (count == 14)\n            payable(msg.sender).transfer(address(this).balance);\n\n    }\n}","sourcePath":"contracts/Game.sol","type":"contract","deployment":{"address":"0x45Afcb66D847eABb04dD5439109EAcdc4d5F4c41","chainid":"4","blockHeight":10610342}}